:03000000020006F5
:03005F0002000399
:0300030002006692
:2000620075B05522E4F50BF50CE4F50DF50E7A007B00780079007409B50D08E4B50E0474C8
:20008200018001E4F511E4F50FF510E50D450E6017E50F45106011E511700D7409B50F06D5
:2000A200E4B5100280028018E50F28FCE510392440FD7F008C828D838FF0E412014A802BCA
:2000C200C000C001E50F2AFEE5103B2440FF7D00AC0BE50D75F00AA42CFCE50F2CFC8E8261
:2000E2008F838DF012014AD001D000050FE4B50F020510C3E50F940AE5109400408D740A75
:200102002AFAE43BFB740A28F8E439F9050DE4B50D02050EC3E50D940AE50E9400500302EF
:2001220000787590017590007401B5A00280F9050BE4B50B02050CC3E50B9408E50C94005A
:08014200500302006B02006291
:06003500E478FFF6D8FD9F
:200013007900E94400601B7A00900169780175A000E493F2A308B8000205A0D9F4DAF27529
:02003300A0FF2C
:1B014A0020F71130F6138883A88220F509F6A8837583002280FEF280F5F022B4
:20003B007800E84400600A790175A000E4F309D8FC7800E84400600C7900900001E4F0A3C3
:04005B00D8FCD9FAFA
:0D000600758112120165E58260030200039E
:04016500758200227D
:00000001FF
